:020000040000FA
:100000000C9440010C9471010C9471010C947101D9
:100010000C9471010C9471010C9471010C94710198
:100020000C9471010C9471010C9471010C94710188
:100030000C9471010C9471010C9471010C94710178
:100040000C9471010C9471010C9471010C94710168
:100050000C9471010C9471010C9471010C94180BA7
:100060000C9471010C94E20A0C94B80A0C9471017E
:100070000C9471010C9471010C9471010C94710138
:100080000C9471010C9471010C9471010C94710128
:100090000C9471010C9471010C9471010C94620B1D
:1000A0000C9471010C9471010C9471010C94710108
:1000B0000C9471010C9471010C9471010C947101F8
:1000C0000C9471010C9471010C9471010C94820ACE
:1000D0000C94580A0C9471010C9471010C947101E8
:1000E0000C9471010C9444040C94860C0C944605F9
:1000F0000C9402030C9456040C94D1020C94F40258
:100100000C943E040C9452040C9464040C94130458
:100110000C9429040C94A3060C940E040C94310442
:100120000C9459050C9425040C943A040C94A402E4
:100130000C9437050C94A2020C94E0020C94480431
:100140000C948D050C94A3020C9460050C9434045B
:100150000C9491030C944C040C9460040C945A0479
:100160000C942D040C9436050C94440300000A0BE7
:1001700002090C0D0E080703040100000000000036
:10018000000000000000000000000000000000006F
:10019000000000000000000012111000000000002C
:1001A000000000000000000000000000000000004F
:1001B000000000002200250028002B002E00310046
:1001C000340002010000050108010B0100002100BC
:1001D000240027002A002D00300033000101000018
:1001E000040107010A0105050505070508080808B7
:1001F000020202020A0A08080404040401010101BF
:1002000001010101030303030303030304070707B9
:100210000C0C0C0C0C0C0C0C02020202060606065E
:10022000060606060B0B0B0B0B0B0B0B010210202B
:10023000200808102040102040800201020108041C
:1002400002010102040810204080804020100804B0
:100250000201800402018040201008040201080409
:10026000020101020408102040800102040810204D
:1002700040801F1C1F1E1F1E1F1F1E1F1E1F860CBF
:1002800011241FBECFEFD1E2DEBFCDBF00E00CBF17
:1002900025E0AEE2B3E001C01D92A13CB207E1F758
:1002A00013E0A0E0B2E0E4E3F3E300E00BBF02C040
:1002B00007900D92AE32B107D9F711E0C0E4D1E05A
:1002C00000E006C021970109802FFE010E94B316AD
:1002D000CF33D10780E00807A9F70E94790D0C946D
:1002E00098190C940000FC01A089B18982E08C93DC
:1002F000A485B5851C92A685B78580E18C93108E68
:10030000A489B58986E08C93A289B3898C91806198
:100310008C93A289B3898C9188608C93A289B389CC
:100320008C9180688C930288F389E02D80818F7D89
:1003300080830895DC01ED91FC910190F081E02D26
:100340006FEF19944F925F926F927F928F929F926C
:10035000AF92BF92CF92DF92EF92FF920F931F93D3
:10036000CF93DF938C016B01FB01D0E0C0E044230D
:1003700009F443C0C285D385E080F180C701E0164F
:10038000F10608F4C801BE018C179D0708F4BC01F2
:100390006E197F0990E080E00E9483154B015C019B
:1003A000CE19DF09BE0190E080E00E9483159B0119
:1003B000AC01C501B4010E94DB1420E030E048EC40
:1003C00052E40E943A1620E030E0A9010E946A142B
:1003D0000E945415862FDF91CF911F910F91FF90AE
:1003E000EF90DF90CF90BF90AF909F908F907F90D5
:1003F0006F905F904F900895E9018C2FC630D10522
:1004000009F46CC0E190F1909E012F5F3F4F0E15F3
:100410001F0590F7CC23F9F2BE0161507109072E38
:10042000000C880B990B0E94851520E030E040EA13
:1004300051E40E943A160E9454154B01CE0181509E
:100440009048880F991FC80ED91EF601C080D18030
:100450000C151D0508F48601B7010E151F0508F4DB
:10046000B8016C197D0990E080E00E9483152B0192
:100470003C01EC18FD08B70190E080E00E94831574
:100480009B01AC01C301B2010E94DB146B017C0132
:10049000BE01DD0F880B990B0E94851520E030E02E
:1004A00040EA51E40E943A160E94541568197909ED
:1004B00090E080E00E9483159B01AC01C701B6016A
:1004C0000E943A166B017C01B40190E080E00E942A
:1004D00083159B01AC01C701B60178CF84E67BCFC1
:1004E00091E090934404809343041092420410924C
:1004F00041040895CF93DF9390E0FC01E45DFD4F4C
:1005000024918A519E4FFC0184918823C1F090E090
:10051000880F991FFC01E453FE4FC591D491FC0153
:10052000EE54FE4FA591B4919FB7F8943881822F75
:10053000809583238883EC91E22BEC939FBFDF911E
:10054000CF91089508950895AF92BF92CF92DF9210
:10055000EF92FF920F931F93CF93DF936C017B0178
:100560008B01040F151FEB015E01AE18BF08C01709
:10057000D10759F06991D601ED91FC910190F0817C
:10058000E02DC6011995892B79F7C501DF91CF912F
:100590001F910F91FF90EF90DF90CF90BF90AF90A1
:1005A0000895FC01538D448D252F30E0842F90E079
:1005B000821B930B541710F0CF960895019708955E
:1005C000FC01918D828D981761F0A28DAE0FBF2F27
:1005D000B11D5D968C91928D9F5F9F73928F90E07D
:1005E00008958FEF9FEF0895FC01918D828D9817EC
:1005F00031F0828DE80FF11D858D90E008958FEF29
:100600009FEF0895FC01918D228D892F90E0805CF1
:100610009F4F821B91098F739927089589E594E074
:100620000E94020321E0892B09F420E0822F089523
:1006300086EF94E00E94020321E0892B09F420E078
:10064000822F0895FC01A48DA80FB92FB11DA35AC4
:10065000BF4F2C91848D90E001968F739927848FE2
:10066000A689B7892C93A089B1898C918370806405
:100670008C93938D848D981306C00288F389E02DA6
:1006800080818F7D80830895EF92FF920F931F9357
:10069000CF93DF93EC0181E0888F9B8D8C8D981335
:1006A0001AC0E889F989808185FF15C09FB7F89441
:1006B000EE89FF896083E889F9898081837080648D
:1006C00080839FBF81E090E0DF91CF911F910F91D8
:1006D000FF90EF900895F62E0B8D10E00F5F1F4FE7
:1006E0000F731127E02E8C8D8E110CC00FB607FCF6
:1006F000FACFE889F989808185FFF5CFCE010E9484
:100700002203F1CFEB8DEC0FFD2FF11DE35AFF4FCC
:10071000F0829FB7F8940B8FEA89FB898081806211
:10072000CFCFCF93DF93EC01888D8823B9F0AA89CE
:10073000BB89E889F9898C9185FD03C0808186FD9C
:100740000DC00FB607FCF7CF8C9185FFF2CF8081EB
:1007500085FFEDCFCE010E942203E9CFDF91CF913B
:10076000089580E090E0892B29F00E941803811100
:100770000E94000080E090E0892B49F080E090E04A
:10078000892B29F00E94000081110E94000080E066
:1007900090E0892B29F00E940E0381110E94000035
:1007A00080E090E0892B49F080E090E0892B29F0EF
:1007B0000E94000081110C9400000895282F30E061
:1007C000F901E459FE4F9491F901E45DFD4F449124
:1007D0002A513E4FF9012491222309F435C099236F
:1007E00011F191509231F8F4E92FF0E08827E450AC
:1007F000FC4F8F4F0C94B3162D0431040E042504C6
:100800002904130434043A043E04440448044C0408
:100810005204560413045A04600464048091800056
:100820008F7780938000E22FF0E0EE0FFF1FEE54F1
:10083000FE4FA591B4918FB7F894EC91611148C027
:1008400040954E234C938FBF0895809180008F7DFB
:10085000E8CF80918000877FE4CF84B58F7784BD17
:10086000E2CF84B58F7DFBCF8091B0008F778093EE
:10087000B000D9CF8091B0008F7DF9CF80919000EA
:100880008F7780939000CFCF809190008F7DF9CFAC
:1008900080919000877FF5CF8091A0008F77809323
:1008A000A000C1CF8091A0008F7DF9CF8091A000E2
:1008B000877FF5CF809120018F7780932001B3CF80
:1008C000809120018F7DF9CF80912001877FF5CF26
:1008D0004E2BB8CF90917B00977F90937B00209117
:1008E000000290E4299F900111248653822B80936B
:1008F0007C0080917A00806480937A0080917A00F5
:1009000086FDFCCF809178009091790008953FB7E3
:10091000F8948091970390919803A0919903B091D6
:100920009A0326B5A89B05C02F3F19F00196A11D7B
:10093000B11D3FBFBA2FA92F982F8827BC01CD0129
:10094000620F711D811D911D42E0660F771F881F88
:10095000991F4A95D1F70895CF92DF92EF92FF92B7
:100960000E9487046B017C010E9487046C197D0939
:100970008E099F09683E734081059105A8F3FF9099
:10098000EF90DF90CF9008952FB7F8946091930384
:100990007091940380919503909196032FBF0895D1
:1009A00020916F03260F3327331F21323105ECF4DA
:1009B00020911904FC0190E080E0243069F082E08D
:1009C0000895A0916F032191AC01415B5C4FA40F8E
:1009D000B52FB11D2C930196861798F380916F0364
:1009E000680F60936F0380E0089581E0089510928E
:1009F000190481E0809318041092130461E084E1EB
:100A00000E94DE0361E085E10E94DE03E9EBF0E095
:100A100080818E7F808380818D7F808388E4809336
:100A2000B80085E48093BC000895CF93DF9391E0F4
:100A300090934E038823B9F0C091B800D091BA00CA
:100A40008091BC008A7B8093BC0060E084E10E94BE
:100A5000DE0360E085E10E94DE030E94F704D0938C
:100A6000BA00C093B800DF91CF9108950895E09146
:100A7000200480911F04E81730F4F0E0EF5DFB4F95
:100A8000808190E008958FEF9FEF0895909120046A
:100A900080911F042FEF3FEF981748F4E92FF0E003
:100AA000EF5DFB4F208130E09F5F90932004C901F0
:100AB000089580911F0490912004891B990B08953B
:100AC000CF92DF92EF92FF920F931F93CF93DF931A
:100AD0007C01CB018A0120914404222389F0EB019F
:100AE0006B01C40ED51ECC15DD0569F06991D701E7
:100AF000ED91FC910190F081E02DC7011995F3CFA4
:100B0000642F0E94D004C801DF91CF911F910F91F3
:100B1000FF90EF90DF90CF900895CF93DF931F92D7
:100B2000CDB7DEB76983209144042223F9F02091E8
:100B30004104203258F021E030E0FC01338322836D
:100B400090E080E00F90DF91CF9108958091420472
:100B5000E82FF0E0E25DFC4F998190838F5F8093F6
:100B600042048093410481E090E0ECCF61E0CE014B
:100B700001960E94D004F7CFCF92DF92EF92FF92BE
:100B80000F931F93CF93DF93D091410481E0D13233
:100B900008F09CC0C09143040E9487046B017C0153
:100BA0008091190481116CC082E08093190481E066
:100BB000809318048FEF8093170410921604D0933B
:100BC0001504AEE2B3E0E3EFF3E080E0D8138DC0AC
:100BD0001092140480911404CC0FC82BC0931404F9
:100BE00080911304813009F084C0109213040E9494
:100BF00087046B017C01809114048093BB00809179
:100C00001B0490911C04A0911D04B0911E04892B1B
:100C10008A2B8B2BA1F00E94870400911B0410915A
:100C20001C0420911D0430911E046C197D098E094D
:100C30009F09061717072807390708F442C0809153
:100C4000BC0083FDD8CF85EC8093BC000E94870454
:100C50006B017C0180911904823009F44CC08091B1
:100C600017048F3F09F469C080911704803209F49A
:100C700066C080911704803309F463C084E026C005
:100C800080911B0490911C04A0911D04B0911E043E
:100C9000892B8A2B8B2B09F483CF0E948704009128
:100CA0001B0410911C0420911D0430911E046C192A
:100CB0007D098E099F09061717072807390708F0CD
:100CC0006FCF80911A040E94150585E010924204AE
:100CD0001092410410924404DF91CF911F910F9123
:100CE000FF90EF90DF90CF9008959D9191938F5F4B
:100CF0006DCF85EEA9CF80911B0490911C04A0912B
:100D00001D04B0911E04892B8A2B8B2B09F4A2CFD2
:100D10000E94870400911B0410911C0420911D0463
:100D200030911E046C197D098E099F09061717075B
:100D30002807390708F08ECFC4CF80E0C7CF82E004
:100D4000C5CF83E0C3CF90E080E00895DC01ED9152
:100D5000FC910190F081E02D1994CF93C82F88E683
:100D60000E94700261E070E08091BF059091C00523
:100D70000E94A606A091BF05B091C0058C2F6AE025
:100D80000E94A7168295807F682F690FED91FC91D4
:100D900011970190F081E02DCD0119958091BF054B
:100DA0009091C005CF910C94BC0582E08093000225
:100DB00087E30E946A0487E30E946A0487E30E9433
:100DC0006A0486E30E946A0486E30E946A0486E35A
:100DD0000C946A04FF920F931F93CF93DF930FE954
:100DE00015E0D0E0C0E0F801F1908F01CE010E9443
:100DF0001D14F81621F06F2DCE010E9425142196A6
:100E0000CA31D10581F78FE995E0DF91CF911F912C
:100E10000F91FF900895CF92DF92EF92FF920F9380
:100E20001F93CF93DF93D62F0E9487046B017C0121
:100E300080911904811165C0CD2F81E08093190440
:100E4000809318049FEF90931704109216049D0F3F
:100E5000909315048093140480911404806D809302
:100E6000140480911304813009F07FC010921304A0
:100E70000E9487046B017C01809114048093BB0065
:100E800080911B0490911C04A0911D04B0911E043C
:100E9000892B8A2B8B2BA1F00E94870400911B04C5
:100EA00010911C0420911D0430911E046C197D09C1
:100EB0008E099F09061717072807390708F442C04B
:100EC0008091BC0083FDD8CF85EC8093BC000E944C
:100ED00087046B017C0180911904813009F447C0BB
:100EE000809116048D1710F4C0911604A3EFB3E09F
:100EF000E1E2F4E080E08C1751F19D9191938F5FD6
:100F0000FACF80911B0490911C04A0911D04B09114
:100F10001E04892B8A2B8B2B09F48ACF0E9487040D
:100F200000911B0410911C0420911D0430911E049B
:100F30006C197D098E099F090617170728073907BD
:100F400008F076CF80911A040E941505C0E0109237
:100F50002004C0931F048C2FDF91CF911F910F911C
:100F6000FF90EF90DF90CF90089585EEAECF809107
:100F70001B0490911C04A0911D04B0911E04892BA8
:100F80008A2B8B2B09F4A7CF0E94870400911B04A6
:100F900010911C0420911D0430911E046C197D09D0
:100FA0008E099F09061717072807390708F093CFFE
:100FB000C9CF88E60E94700262E070E08091BF05B0
:100FC0009091C0050E94A6068091BF059091C00532
:100FD0000E94BC0561E070E08091BF059091C00562
:100FE0000E940B078091BF059091C005DC01ED9137
:100FF000FC910284F385E02D1995982F92959F70AE
:10100000382F3F7086FF0CC085FB222720F92093E4
:1010100001029170832FBAE09B9F800D11240895E7
:10102000109201029370832F2AE0929F800D112469
:10103000089588E60E94700261E070E08091BF052B
:101040009091C0050E94A6068091BF059091C005B1
:101050000E94BC0561E070E08091BF059091C005E1
:101060000E940B078091BF059091C005DC01ED91B6
:10107000FC910284F385E02D1995982F92959F702D
:101080008F70BAE09B9F800D1124089588E60E941E
:10109000700270E060E08091BF059091C0050E94F1
:1010A000A6068091BF059091C0050E94BC0561E035
:1010B00070E08091BF059091C0050E940B07809160
:1010C000BF059091C005DC01ED91FC910284F38590
:1010D000E02D1995982F92959F708F70BAE09B9F85
:1010E000800D11240895CF93DF93D82F88E60E94B6
:1010F000700262E070E08091BF059091C0050E948F
:10110000A6068091BF059091C0050E94BC0561E0D4
:1011100070E08091BF059091C0050E940B078091FF
:10112000BF059091C005DC01ED91FC910284F3852F
:10113000E02D199586FF38C0C1E0DC3008F4C0E02E
:10114000DC3008F0DC50D11101C0DCE08D2F6AE00A
:101150000E94A7168295807F980FD0E085E0CC0F83
:10116000DD1F8A95E1F7C064C92B88E60E947002F2
:1011700062E070E08091BF059091C0050E94A606D4
:101180008091BF059091C005DC01ED91FC9101902B
:10119000F081E02D6C2F19958091BF059091C005CD
:1011A000DF91CF910C94BC058D2F6AE00E94A716A9
:1011B000C82FC295C07FC90FCF7BD7CFCF93C82F81
:1011C00088E60E94700270E060E08091BF05909117
:1011D000C0050E94A606A091BF05B091C0058C2F46
:1011E0006AE00E94A7168295807F682F690FED91B3
:1011F000FC9111970190F081E02DCD01199580911E
:10120000BF059091C0050E94BC0588E60E9470024F
:101210006FE070E08091BF059091C0050E94A60626
:101220008091BF059091C0050E94BC0561E070E00F
:101230008091BF059091C0050E940B078091BF056A
:101240009091C005DC01ED91FC910284F385E02DC5
:101250001995C82F88E60E9470026FE070E08091B7
:10126000BF059091C0050E94A6068091BF05909190
:10127000C0056C2F6F77DC01ED91FC910190F0813E
:10128000E02D19958091BF059091C005CF910C94E8
:10129000BC05FB0101900020E9F73197AF01461B27
:1012A000570BDC01ED91FC910280F381E02D199444
:1012B0008F929F92AF92BF920F931F93CF93DF9322
:1012C000CDB7DEB7A1970FB6F894DEBF0FBECDBF86
:1012D00019A2423008F44AE08E010F5D1F4F842EA0
:1012E000912CB12CA12CA50194010E944714E62F4A
:1012F000B901CA01EA3004F5E05DD801EE938D0131
:10130000232B242B252B79F790E080E0109729F0F0
:10131000BD0186EF94E00E944909A1960FB6F894AA
:10132000DEBF0FBECDBFDF91CF911F910F91BF9058
:10133000AF909F908F900895E95CDFCFCF93DF93BC
:10134000EC010E944909CE010E949A01CE010E943F
:101350009A01CE01DF91CF910C949A019F92AF92A6
:10136000BF92CF92DF92EF92FF920F931F93CF9392
:10137000DF93962E7C01D0E0C0E005E414E084E128
:10138000B82E96E2C92E92E0D92EAA24AA94CE01B4
:10139000992029F0CC2319F0C530D10599F5F80131
:1013A0002B2D11922A95E9F7F70121812F932081A6
:1013B0002F939F938F93DF92CF921F930F930E944F
:1013C000C21665E474E089E594E00E949E098DB739
:1013D0009EB708960FB6F8949EBF0FBE8DBF21969C
:1013E000F2E0EF0EF11CC630D10589F6DF91CF9106
:1013F0001F910F91FF90EF90DF90CF90BF90AF9033
:101400009F900895F8012B2D11922A95E9F7AF923C
:10141000AF92DF93CF93DF92CF921F930F930E94EF
:10142000C21665E474E089E594E00E949E09EDB778
:10143000FEB738960FB6F894FEBF0FBEEDBFCFCF04
:1014400085ED8093BC0080911B0490911C04A091B9
:101450001D04B0911E040796A11DB11D23E0B69591
:10146000A795979587952A95D1F72091BC0024FDE3
:1014700003C010921904089540911B0450911C045C
:1014800060911D0470911E04452B462B472B69F378
:101490000097A105B10541F02AE22A95F1F700C0B5
:1014A0000197A109B109E1CF80911A040C941505A7
:1014B0001F920F920FB60F9211240BB60F922F931B
:1014C0003F934F935F936F937F938F939F93AF93CC
:1014D000BF93EF93FF9389E594E00E942203FF916D
:1014E000EF91BF91AF919F918F917F916F915F919C
:1014F0004F913F912F910F900BBE0F900FBE0F9009
:101500001F9018951F920F920FB60F9211240BB6D1
:101510000F922F938F939F93EF93FF93E091690422
:10152000F0916A048081E0916F04F091700482FD73
:101530001DC09081809172048F5F8F73209173041E
:10154000821741F0E0917204F0E0E75AFB4F958F6B
:1015500080937204FF91EF919F918F912F910F9043
:101560000BBE0F900FBE0F901F9018958081F2CF89
:101570001F920F920FB60F9211240BB60F922F935A
:101580003F934F935F936F937F938F939F93AF930B
:10159000BF93EF93FF9386EF94E00E942203FF91A5
:1015A000EF91BF91AF919F918F917F916F915F91DB
:1015B0004F913F912F910F900BBE0F900FBE0F9048
:1015C0001F9018951F920F920FB60F9211240BB611
:1015D0000F922F938F939F93EF93FF93E0910605C4
:1015E000F09107058081E0910C05F0910D0582FDD9
:1015F0001DC0908180910F058F5F8F732091100522
:10160000821741F0E0910F05F0E0EA50FB4F958F13
:1016100080930F05FF91EF919F918F912F910F90E4
:101620000BBE0F900FBE0F901F9018958081F2CFC8
:101630001F920F920FB60F9211242F933F938F9307
:101640009F93AF93BF938091930390919403A09144
:101650009503B09196033091920323E0230F2D3729
:1016600058F50196A11DB11D209392038093930319
:1016700090939403A0939503B0939603809197035E
:1016800090919803A0919903B0919A030196A11D9E
:10169000B11D8093970390939803A0939903B093FF
:1016A0009A03BF91AF919F918F913F912F910F908E
:1016B0000FBE0F901F90189526E8230F0296A11DCC
:1016C000B11DD2CF1F920F920FB60F9211240BB6FD
:1016D0000F922F933F934F935F936F937F938F93CB
:1016E0009F93AF93BF93EF93FF938091B900887F4F
:1016F000803609F44DC008F040C0883209F4A9C012
:1017000028F5803109F49DC0C8F4882309F4FBC092
:10171000883009F496C0FF91EF91BF91AF919F91EE
:101720008F917F916F915F914F913F912F910F908A
:101730000BBE0F900FBE0F901F901895883109F4C3
:1017400088C0803241F78093170414C0803409F4B4
:101750009DC040F48033B9F38833E9F680931704D1
:1017600085ECB0C0803509F485C0883509F496C091
:10177000883489F60E94200ACECF883909F48CC0BB
:1017800038F5883729F050F4883611F0803719F68B
:1017900083E0809319041092910357C0883809F4AC
:1017A0007BC0803919F0803809F0B5CF8091910362
:1017B000803208F071C0E091910381E08E0F809338
:1017C00091038091BB00F0E0EF58FC4F80833DC057
:1017D000803B39F0E0F4803A09F479C0883A09F0A6
:1017E0009ACF84E0809319041092700310926F03D3
:1017F000E0919D03F0919E03199580916F038111F3
:101800000FC081E080936F0310924F0309C0803CAA
:1018100009F4A6CF883C09F4A3CF883B09F07BCF1D
:10182000E091700381E08E0F80937003F0E0E15B44
:10183000FC4F80818093BB009091700380916F0377
:1018400029C0809114048093BB0085EC8093BC0078
:1018500062CF9091160480911504981758F5E09185
:10186000160481E08E0F80931604F0E0ED50FC4FDB
:101870008081E9CFE091160481E08E0F80931604F9
:101880008091BB00F0E0ED50FC4F808390911604F6
:10189000809115049817C8F285E8D8CFE091160416
:1018A00081E08E0F809316048091BB00F0E0ED5034
:1018B000FC4F80838091180481115CCF81E080937C
:1018C000130484EA8093BC001092190424CF85ECA1
:1018D0008093BC001092190480919103803230F4FF
:1018E000E0919103F0E0EF58FC4F1082609191037A
:1018F00070E0E0919B03F0919C0381E793E01995E0
:101900001092910308CF1092170434CF0F931F93B6
:10191000CF93DF9310925C0410925B0488EE93E007
:10192000A0E0B0E080935D0490935E04A0935F0418
:10193000B093600426E032E030935A0420935904B7
:1019400045ED50E0509366044093650444ED50E04B
:10195000509368044093670440ED50E050936A044C
:101960004093690441ED50E050936C0440936B0444
:1019700042ED50E050936E0440936D0446ED50E00C
:101980005093700440936F04109272041092730489
:1019900010927404109275041092F9041092F804D5
:1019A0008093FA049093FB04A093FC04B093FD048D
:1019B0003093F7042093F60425EC30E030930305D0
:1019C0002093020524EC30E03093050520930405B4
:1019D00020EC30E0309307052093060521EC30E041
:1019E000309309052093080522EC30E030930B0575
:1019F00020930A0526EC30E030930D0520930C056A
:101A000010920F05109210051092110510921205F8
:101A100010929605109295058093970590939805DE
:101A2000A0939905B0939A0588E192E0909394056C
:101A30008093930583E995E09093C0058093BF055B
:101A400080E18093BE058CE18093BD0586E08093A4
:101A5000BC0540E021E637E904E610E0C3E9DEEF2B
:101A6000842F837059F4E42FF0E0CF01B8010E9475
:101A70003314892BA9F491E0EF2B09F090E081E079
:101A8000840F692F70E0FB01E359FE4F2E173F07CB
:101A900048F0AE01461B570B240F351F482FE0CFEF
:101AA00091E0EDCF4093B90581E0482F4150550BAF
:101AB000FA01EE58FD4FE491992319F0823009F4B0
:101AC000EF5FF0E041E0480F2E173F0720F02E1B9C
:101AD0003F0B842FEACF8093BA052F5F2093BB057D
:101AE0001092AB051092B805DF91CF911F910F9125
:101AF0000895CF93DF9300D01F921F92CDB7DEB72A
:101B0000789484B5826084BD84B5816084BD85B5D8
:101B1000826085BD85B5816085BD80916E008160E4
:101B200080936E001092810080918100826080938A
:101B3000810080918100816080938100809180008C
:101B40008160809380008091B10084608093B100B7
:101B50008091B00081608093B0008091910082609C
:101B60008093910080919100816080939100809199
:101B700090008160809390008091A10082608093AA
:101B8000A1008091A10081608093A1008091A000BC
:101B900081608093A0008091210182608093210167
:101BA00080912101816080932101809120018160D9
:101BB0008093200180917A00846080937A008091E4
:101BC0007A00826080937A0080917A0081608093AD
:101BD0007A0080917A00806880937A001092C10028
:101BE000A895809160008861809360008DE080936B
:101BF000600086EF94E00E94730189E594E00E9402
:101C000073011092200410921F041092420410924B
:101C100041040E94F70482EA92E090939E0380932D
:101C20009D0383EA92E090939C0380939B0361E37E
:101C300072E086EF94E00E9449096CE372E086EF5F
:101C400094E00E9449090E94C4046093EB037093DE
:101C5000EC038093ED039093EE036093EF03709396
:101C6000F0038093F1039093F2030FE915E01C82D7
:101C70001B828B819C810E941D14D8018D938D0144
:101C8000EB81FC813196FC83EB837A9791F787E3B4
:101C90000E947A0286E30E947A0244E150E064E105
:101CA00070E085E494E00E94BB160E944608F82E7E
:101CB0000E941908082F0E94D907182F88E60E9451
:101CC000700264E070E08091BF059091C0050E94B1
:101CD000A6068091BF059091C0050E94BC0561E0F9
:101CE00070E08091BF059091C0050E940B07809124
:101CF000BF059091C005DC01ED91FC910284F38554
:101D0000E02D19958D8388E60E94700265E070E0F1
:101D10008091BF059091C0050E94A6068091BF05E5
:101D20009091C0050E94BC0561E070E08091BF0504
:101D30009091C0050E940B078091BF059091C0054E
:101D4000DC01ED91FC910284F385E02D19958B83E4
:101D5000881F8827881F8093010288E60E947002EE
:101D600066E070E08091BF059091C0050E94A606D4
:101D70008091BF059091C0050E94BC0561E070E0B4
:101D80008091BF059091C0050E940B078091BF050F
:101D90009091C005DC01ED91FC910284F385E02D6A
:101DA00019951F92FF921F920F931F921F932D81DF
:101DB00022952F709AE0BD81BF70299FB00D11242C
:101DC0001F92BF932B8122952770EB81EF70299F83
:101DD000E00D11241F92EF93282F22952F708F7002
:101DE000299F800D11241F928F938FE392E09F9380
:101DF0008F9385E494E09F938F930E94C2166FE5C2
:101E000072E086EF94E00E94490965E474E086EF91
:101E100094E00E9449096CE372E086EF94E00E942E
:101E200049090E94D5060FB6F894DEBF0FBECDBF9C
:101E3000ECECEE2EF12C22242A94F3E03F2EADE6BA
:101E4000CA2EA2E0DA2EB0E48B2EB2E49B2EBFE0C5
:101E5000AB2EB12C0E9487046093EF037093F003C4
:101E60008093F1039093F20314E1A7EDB3E0E12F27
:101E70001D92EA95E9F789E594E00E940203892B17
:101E800009F466C089E594E00E94F4028636910563
:101E900009F06CC2A7EDB3E01D921A95E9F707EDC2
:101EA00013E00E94C4046093F7037093F8038093D7
:101EB000F9039093FA0389E594E00E940203892BC9
:101EC000B1F40E94C4044090F7035090F80360906E
:101ED000F9037090FA0364197509860997096B3044
:101EE00071058105910518F40E94AC04E4CF89E5E1
:101EF00094E00E94E002F80181938F01F3E00C3D31
:101F00001F0779F68091D803833009F015C26091DC
:101F1000D3037091D4038091D5039091D6030E948E
:101F200054157F936F93DF92CF9275E4472E74E040
:101F3000572E5F924F920E94C216B20189E594E03B
:101F40000E949E090F900F900F900F900F900F908E
:101F50000E94C4040091EB031091EC032091ED0367
:101F60003091EE03601B710B820B930B653671058C
:101F70008105910508F45EC10E94C4046093EB03DF
:101F80007093EC038093ED039093EE0366E972E0A7
:101F900089E594E00E949E094090CF035090D003C1
:101FA0006090D1037090D20386E30E946A04BC0162
:101FB000990F880B990B0E9485159B01AC01C301F9
:101FC000B2010E9469142AE037ED43EA5CE30E9403
:101FD0003A169B01AC01C301B2010E9469146093DF
:101FE000CF037093D0038093D1039093D20340909A
:101FF000A3035090A4036090A5037090A60320E073
:1020000030E04AE754E4C301B2010E9435166DE99D
:1020100072E0181664F020E030E048EC52E4C301AE
:10202000B2010E94D61487FFA3C360EB72E089E57A
:1020300094E00E949E0967EA72E089E594E00E94BC
:102040009E094090D3035090D4036090D5037090C4
:10205000D60387E30E946A04BC01990F880B990B91
:102060000E9485159B01AC01C301B2010E94691455
:102070002AE037ED43EA5CE30E943A169B01AC018B
:10208000C301B2010E9469146093D3037093D40317
:102090008093D5039093D60340909F035090A00364
:1020A0006090A1037090A20320E030E04AE754E47E
:1020B000C301B2010E9435166EEC72E0181664F08E
:1020C00020E030E048EC52E4C301B2010E94D61493
:1020D00087FF7EC361EE72E089E594E00E949E096D
:1020E00068ED72E089E594E00E949E0944E150E0C9
:1020F00064E170E085E494E00E94BB160E9446080B
:10210000082F0E941908182F0E94D9071F920F93B9
:102110001F921F931F928F939FEF492E92E0592E8B
:102120005F924F9225E434E03F932F930E94C216B2
:1021300065E474E089E594E00E949E0944E150E082
:1021400064E170E085E494E00E94BB1688E60E949A
:10215000700261E170E08091BF059091C0050E941E
:10216000A6068091BF059091C0050E94BC0562E063
:1021700070E08091BF059091C0050E940B0780918F
:10218000BF059091C005DC01ED91FC910084F185C3
:10219000E02D19950FB6F894DEBF0FBECDBF892B89
:1021A00009F446C38091BF059091C005DC01ED9113
:1021B000FC910284F385E02D1995182F8091BF05BD
:1021C0009091C005DC01ED91FC910284F385E02D36
:1021D00019951A831982BC01607C772749805A803F
:1021E00064297529072E000C880B990B0E94851510
:1021F00020E030E040E85BE30E943A160E944D1573
:102200007F936F9389E1682E83E0782E7F926F929F
:1022100085E494E09F938F930E94C21665E474E076
:1022200089E594E00E949E090F900F900F900F9007
:102230000F900F900E94C4040091FB031091FC03C7
:102240002091FD033091FE03601B710B820B930BF9
:10225000693E73408105910508F46AC081E080936E
:10226000000287E30E946A0487E30E946A0487E30E
:102270000E946A0486E30E946A0486E30E946A045C
:1022800086E30E946A0486E30E946A04BC01990FF7
:10229000880B990B0E9485156093A3037093A40388
:1022A0008093A5039093A60387E30E946A04BC0170
:1022B000990F880B990B0E94851560939F0370936B
:1022C000A0038093A1039093A2030E94D5060E94CD
:1022D000C4046093FB037093FC038093FD0390930D
:1022E000FE0368E273E086EF94E00E9449090E94D1
:1022F00087040091EF031091F0032091F1033091D6
:10230000F2032B013C01401A510A620A730AA3012D
:102310009201C501B4010E944714CA01B9014AE003
:102320000E9458096CE372E086EF94E00E9449092C
:10233000A8950E94B1038ECD823009F009CE60913C
:10234000CF037091D0038091D1039091D2030E946A
:1023500054157F936F93DF92CF9225E434E03F933F
:102360002F930E94C21665E474E0E8CD89E594E0FD
:102370000E94F4028536910509F0EEC1A7EDB3E0A5
:102380001D921A95E9F707ED13E00E94C4046093CB
:10239000F7037093F8038093F9039093FA0389E5A8
:1023A00094E00E940203892B09F49EC089E594E021
:1023B0000E94E002F80181938F016EED462E63E0EA
:1023C000562E4E165F0609F78091D803813071F4BE
:1023D0008091D903863009F09EC08091DA03811183
:1023E00005C00E94D9078F5F0E9473088091D803AF
:1023F00081112AC08091D903813099F48091DA0348
:10240000813009F0BFC00E94C4046093A703709399
:10241000A8038093A9039093AA038091D803811104
:1024200013C08091D9038930B1F58091DA038130EE
:1024300009F0D7C00E94C4046093A7037093A80357
:102440008093A9039093AA038091D803823019F551
:102450000091D9038FEF800F863008F0F1C0809192
:10246000DA03813009F016C1000F110B03561A4F21
:102470006091CF037091D0038091D1039091D203EA
:102480000E945415F801768765876091B8058CEA3B
:1024900095E00E94AE098091D803833009F058CDB1
:1024A0000091D9038FEF800F863008F00FC1809123
:1024B000DA03813009F034C1000F110B03561A4FB3
:1024C0006091D3037091D4038091D5039091D6038A
:1024D0000E945415D8016D937C936091AB058FE9F0
:1024E00095E00E94AE0934CD0E94C4044090F703E9
:1024F0005090F8036090F9037090FA03641975091D
:10250000860997096B3071058105910508F04ECF5A
:102510000E94AC0444CF893041F48091DA038111E8
:1025200065CF0E94D90781505FCF873051F48091E9
:10253000DA0381115BCF0E9419088F5F0E94AD06FC
:1025400055CF8A3041F48091DA0381114FCF0E9438
:1025500019088150F3CF883051F48091DA0381114A
:1025600045CF0E9446088F5F0E94DE083FCF8B3028
:1025700009F03CCF8091DA03811138CF0E944608E0
:102580008150F2CF81114DCF0E94C4044090A70327
:102590005090A8036090A9037090AA03641975096C
:1025A00086099709693B7B408105910508F435CF81
:1025B0000E94C4046419750986099709603177423D
:1025C0008105910508F029CF67E772E089E594E07D
:1025D0000E949E096091B8058CEA95E00E94AE09C0
:1025E0001CCF811158CF0E94C4044090A703509083
:1025F000A8036090A9037090AA036419750986095D
:102600009709693B7B408105910508F41DCF0E9425
:10261000C4046419750986099709603177428105F8
:10262000910508F011CF67E872E089E594E00E9417
:102630009E096091AB058FE995E00E94AE0904CF39
:10264000073041F58091DA03813009F024CF1092F0
:10265000AD051092AC05F092AF05E092AE0549E9E8
:10266000442E552453945092B1054092B00555E63E
:10267000652E52E0752E7092B3056092B20522E38A
:1026800033E03093B5052093B4053092B70520921E
:10269000B605FBCE053179F48091DA03813009F07B
:1026A000FACE9091B805992319F01092B805EDCEA5
:1026B0008093B805EACE093009F0EDCE8091DA03B7
:1026C000813009F0E8CE0E94EA06E5CE073041F5F8
:1026D0008091DA03813009F03BCC1092A005109272
:1026E0009F05F092A205E092A105E9E9F1E0F093DF
:1026F000A405E093A30525E6422E22E0522E509237
:10270000A6054092A50532E3632E33E0732E709246
:10271000A8056092A7053092AA052092A905DDCEF2
:10272000053179F48091DA03813009F011CC909170
:10273000AB05992319F01092AB05CFCE8093AB0572
:10274000CCCE093009F004CC8091DA03813009F055
:10275000FFCB0E94EA06FCCB89E594E00E94E002F0
:10276000BC01990F880B990B40E10E945809F0CBEE
:102770006AEB72E089E594E00E949E096091CF03C4
:102780007091D0038091D1039091D2030E9454158F
:10279000CB014091B8056CEA75E00E94A2011F923E
:1027A0008F9384EC92E09F938F9325E434E03F93E2
:1027B0002F930E94C21665E474E089E594E00E94BC
:1027C0009E090F900F900F900F900F900F9039CCA3
:1027D0006BEE72E089E594E00E949E096091D3035C
:1027E0007091D4038091D5039091D6030E94541523
:1027F000CB014091AB056FE975E00E94A2011F92E9
:102800008F9385EF92E09F938F93A5E4B4E0BF93FD
:10281000AF930E94C21665E474E089E594E00E94DB
:102820009E090F900F900F900F900F900F905ECC1D
:1028300060E07CE38CE196ECE1CCF999FECF92BDAF
:1028400081BDF89A992780B50895262FF999FECF72
:102850001FBA92BD81BD20BD0FB6F894FA9AF99ABD
:102860000FBE01960895AA1BBB1B51E107C0AA1F0A
:10287000BB1FA617B70710F0A61BB70B881F991F21
:102880005A95A9F780959095BC01CD010895A1E2D4
:102890001A2EAA1BBB1BFD010DC0AA1FBB1FEE1FDA
:1028A000FF1FA217B307E407F50720F0A21BB30B25
:1028B000E40BF50B661F771F881F991F1A9469F7A1
:1028C00060957095809590959B01AC01BD01CF01FD
:1028D00008955058BB27AA270E9481140C94FB1519
:1028E0000E94ED1538F00E94F41520F039F49F3F56
:1028F00019F426F40C94EA150EF4E095E7FB0C9419
:10290000E415E92F0E940C1658F3BA1762077307F3
:102910008407950720F079F4A6F50C942E160EF492
:10292000E0950B2EBA2FA02D0B01B90190010C01DF
:10293000CA01A0011124FF27591B99F0593F50F4F7
:10294000503E68F11A16F040A22F232F342F44274F
:10295000585FF3CF469537952795A795F040539547
:10296000C9F77EF41F16BA0B620B730B840BBAF017
:102970009150A1F0FF0FBB1F661F771F881FC2F782
:102980000EC0BA0F621F731F841F48F48795779596
:102990006795B795F7959E3F08F0B0CF9395880F50
:1029A00008F09927EE0F9795879508950E94C01516
:1029B00008F481E008950E94EF140C94FB150E9426
:1029C000F41558F00E94ED1540F029F45F3F29F00E
:1029D0000C94E41551110C942F160C94EA150E94D6
:1029E0000C1668F39923B1F3552391F3951B550BFE
:1029F000BB27AA2762177307840738F09F5F5F4FD2
:102A0000220F331F441FAA1FA9F335D00E2E3AF010
:102A1000E0E832D091505040E695001CCAF72BD028
:102A2000FE2F29D0660F771F881FBB1F2617370779
:102A30004807AB07B0E809F0BB0B802DBF01FF27AB
:102A400093585F4F3AF09E3F510578F00C94E4158F
:102A50000C942F165F3FE4F3983ED4F38695779558
:102A60006795B795F7959F5FC9F7880F911D969564
:102A7000879597F90895E1E0660F771F881FBB1FC0
:102A8000621773078407BA0720F0621B730B840B6D
:102A9000BA0BEE1F88F7E09508950E9454156894CC
:102AA000B1110C942F1608950E94141688F09F57A8
:102AB00098F0B92F9927B751B0F0E1F0660F771F62
:102AC000881F991F1AF0BA95C9F714C0B13091F058
:102AD0000E942E16B1E008950C942E16672F782FC1
:102AE0008827B85F39F0B93FCCF38695779567951D
:102AF000B395D9F73EF490958095709561957F4F89
:102B00008F4F9F4F0895E89409C097FB3EF490952E
:102B10008095709561957F4F8F4F9F4F9923A9F0B6
:102B2000F92F96E9BB279395F69587957795679545
:102B3000B795F111F8CFFAF4BB0F11F460FF1BC089
:102B40006F5F7F4F8F4F9F4F16C0882311F096E91C
:102B500011C0772321F09EE8872F762F05C06623CA
:102B600071F096E8862F70E060E02AF09A95660F83
:102B7000771F881FDAF7880F9695879597F908953C
:102B8000990F0008550FAA0BE0E8FEEF161617067E
:102B9000E807F907C0F012161306E407F50798F0E6
:102BA000621B730B840B950B39F40A2661F0232BFF
:102BB000242B252B21F408950A2609F4A140A6957B
:102BC0008FEF811D811D089597F99F6780E870E060
:102BD00060E008959FEF80EC089500240A94161693
:102BE000170618060906089500240A9412161306FB
:102BF000140605060895092E0394000C11F4882389
:102C000052F0BB0F40F4BF2B11F460FF04C06F5FA4
:102C10007F4F8F4F9F4F089557FD9058440F551F7A
:102C200059F05F3F71F04795880F97FB991F61F04E
:102C30009F3F79F087950895121613061406551FC5
:102C4000F2CF4695F1DF08C0161617061806991F31
:102C5000F1CF86957105610508940895E894BB2726
:102C600066277727CB0197F908950E94C01508F4CD
:102C70008FEF08950E944D160C94FB150E94ED15E0
:102C800038F00E94F41520F0952311F00C94E4150F
:102C90000C94EA1511240C942F160E940C1670F354
:102CA000959FC1F3950F50E0551F629FF001729FF1
:102CB000BB27F00DB11D639FAA27F00DB11DAA1F00
:102CC000649F6627B00DA11D661F829F2227B00D4D
:102CD000A11D621F739FB00DA11D621F839FA00DD8
:102CE000611D221F749F3327A00D611D231F849F28
:102CF000600D211D822F762F6A2F11249F5750407F
:102D00009AF0F1F088234AF0EE0FFF1FBB1F661FF9
:102D1000771F881F91505040A9F79E3F510580F0C2
:102D20000C94E4150C942F165F3FE4F3983ED4F313
:102D3000869577956795B795F795E7959F5FC1F766
:102D4000FE2B880F911D9695879597F90895991BED
:102D500079E004C0991F961708F0961B881F7A9592
:102D6000C9F780950895EE0FFF1F881F8BBF07904E
:102D7000F691E02D1994DC0101C06D934150504053
:102D8000E0F708950F931F93CF93DF93CDB7DEB78E
:102D90002E970FB6F894DEBF0FBECDBF0E891F89E8
:102DA00086E08C831A8309838FEF9FE79E838D8350
:102DB000AE01465E5F4F688D798DCE0101960E940F
:102DC000F2162F813885020F131FF80110822E96FC
:102DD0000FB6F894DEBF0FBECDBFDF91CF911F912C
:102DE0000F9108952F923F924F925F926F927F9230
:102DF0008F929F92AF92BF92CF92DF92EF92FF920B
:102E00000F931F93CF93DF9300D000D000D01F9279
:102E10001F92CDB7DEB77C013B018A01FC0117820E
:102E20001682838181FFDDC1CE0101965C01F7012D
:102E30009381F30193FD859193FF81913F01882355
:102E400009F453C1853239F493FD859193FF819143
:102E50003F01853229F4B70190E00E940A19E7CFBB
:102E6000912C212C312CFFE1F31538F08B3211F12C
:102E700090F4803209F1833229F137FC3CC020ED17
:102E8000280F2A3050F536FE20C08AE0989E200D8B
:102E90001124922E06C08D3291F0803371F7689420
:102EA00030F8F30193FD859193FF81913F018111EA
:102EB000DACF21C0689431F8689432F8F2CF689480
:102EC00033F8EFCF689434F8ECCFEAE02E9E200D73
:102ED0001124222E689435F8E4CF8E3229F436FC82
:102EE00004C1689436F8DDCF8C3619F4689437F84D
:102EF000D8CF8836B1F2982F9F7D95549330E0F06B
:102F00008336A1F18337C1F1833509F063C028010D
:102F1000F2E04F0E511CF801C080D180692D70E0A5
:102F200036FC02C06FEF7FEFC6010E94F4184C011F
:102F3000689437F882010AC00C5F1F4FFFE3F983E2
:102F400088248394912C6501E89437F833FE2DC0D2
:102F5000522C8114910471F5552009F468CFB70102
:102F600080E290E00E940A195A94F6CFF80180811D
:102F700089830E5F1F4FE4CF2801F2E04F0E511CF2
:102F8000F801C080D180692D70E036FC02C06FEF7F
:102F90007FEFC6010E94FF184C018201D5CFB70117
:102FA00080E290E00E940A192A942814190409F07A
:102FB000B0F7CECFF60137FC859137FE81916F01D6
:102FC000B70190E00E940A1951105A94F1E08F1A4B
:102FD0009108BFCF843619F0893609F077C0F8011F
:102FE00037FE6BC060817181828193810C5F1F4FBE
:102FF000F32DFF763F2E97FF09C090958095709531
:1030000061957F4F8F4F9F4F689437F82AE030E0EB
:10301000A5010E943A19C82ECA188C2C432C36FEE2
:103020000CC0E89440F8C91440F434FE05C032FCEA
:1030300003C0F32DFE7E4F2E892C44FEAAC0FE0154
:10304000EC0DF11D8081803309F09CC0242D297E78
:10305000422E842D8870582E43FCAAC040FEA4C086
:103060009C2C821418F42C0C922C981844FEA6C0A8
:10307000B70180E390E00E940A1942FE09C088E788
:1030800090E041FE02C088E590E0B7010E940A1975
:10309000C91408F49FC0CA94D12C9FEFC91AD90A49
:1030A000CA0CDB1CF60182916F01B70190E00E940F
:1030B0000A19AC14BD04B1F74FCF60817181072E9E
:1030C000000C880B990B0E5F1F4F92CFD32CE89406
:1030D000D4F82AE030E08537E1F1232D297FD22E84
:1030E0008F36A9F1F0F4883551F1F7018681978187
:1030F0002B960FB6F894DEBF0FBECDBFDF91CF91F8
:103100001F910F91FF90EF90DF90CF90BF90AF9005
:103110009F908F907F906F905F904F903F902F90F7
:103120000895803749F0883701F7D4FE02C06894CB
:10313000D2F820E130E00DC06894D4F8F6CF34FE28
:1031400003C0822F8660D82E20E132E002C028E042
:1031500030E0F801D7FE0FC06081718182819381D8
:103160000C5F1F4FA5010E943A19C82ECA183D2CAA
:10317000E89437F852CF6081718190E080E00E5F73
:103180001F4FF0CF42FC02C0839463CF839483949B
:1031900060CF842D867809F45CCFF6CFB70180E24A
:1031A00090E00E940A1983948214C0F3512C5ECFE0
:1031B000522C5818821408F459CFF8CF842D8678F1
:1031C00009F466CF8BE241FE80E247FC8DE2B70155
:1031D00090E05CCFB70180E390E00E940A199A94D6
:1031E00057CF8FEF9FEF84CFFC0105906150704067
:1031F0000110D8F7809590958E0F9F1F0895FC01C0
:103200006150704001900110D8F7809590958E0F15
:103210009F1F08950F931F93CF93DF93182F092FAC
:10322000EB018B8181FD09C01FEF0FEF812F902FE4
:10323000DF91CF911F910F91089582FF14C02E81CD
:103240003F818C819D81281739073CF4E881F98101
:10325000CF0101969983888310838E819F81019687
:103260009F838E83E3CFE885F985812F1995892B7C
:10327000A1F3DACFFA01AA27283051F1203181F1E8
:10328000E8946F936E7F6E5F7F4F8F4F9F4FAF4F6E
:10329000B1E03ED0B4E03CD0670F781F891F9A1F81
:1032A000A11D680F791F8A1F911DA11D6A0F711D35
:1032B000811D911DA11D20D009F468943F912AE041
:1032C000269F11243019305D3193DEF6CF01089529
:1032D000462F4770405D4193B3E00FD0C9F7F6CF5A
:1032E000462F4F70405D4A3318F0495D31FD405222
:1032F000419302D0A9F7EACFB4E0A69597958795B8
:1033000077956795BA95C9F7009761057105089596
:103310009B01AC010A2E0694579547953795279542
:10332000BA95C9F7620F731F841F951FA01D0895DA
:10333000F894FFCF0101000000004403A402D10271
:1033400091030203E002F402000000008D05600515
:10335000A30636055905460537056E25642E7661A8
:103360006C3D25640073657269616C2C204F4B00C5
:103370000D0A003230253032642D253032642D257F
:1033800030326420253032643A253032643A2530B8
:1033900032640063757272656E742054696D653AAB
:1033A000006E362E76616C3D256400706167652085
:1033B0004675656C5F63616C69620070616765206A
:1033C0004F696C5F63616C69620073656E646D6503
:1033D000006A302E627069633D34006A302E766177
:1033E0006C3D30006A302E627069633D35006A3092
:1033F0002E627069633D30006A302E76616C3D2527
:1034000064006A312E627069633D34006A312E7641
:10341000616C3D30006A312E627069633D35006A2F
:10342000312E627069633D32006A312E76616C3DE7
:1034300025640074696D652E7478743D22253032E0
:10344000643A253032643A25303264220074656D66
:10345000702E7478743D2225644322004C50533AF8
:0234600020004A
:020000040003F7
:10E000000D9489F10D94B2F10D94B2F10D94B2F129
:10E010000D94B2F10D94B2F10D94B2F10D94B2F1F0
:10E020000D94B2F10D94B2F10D94B2F10D94B2F1E0
:10E030000D94B2F10D94B2F10D94B2F10D94B2F1D0
:10E040000D94B2F10D94B2F10D94B2F10D94B2F1C0
:10E050000D94B2F10D94B2F10D94B2F10D94B2F1B0
:10E060000D94B2F10D94B2F10D94B2F10D94B2F1A0
:10E070000D94B2F10D94B2F10D94B2F10D94B2F190
:10E080000D94B2F10D94B2F10D94B2F10D94B2F180
:10E090000D94B2F10D94B2F10D94B2F10D94B2F170
:10E0A0000D94B2F10D94B2F10D94B2F10D94B2F160
:10E0B0000D94B2F10D94B2F10D94B2F10D94B2F150
:10E0C0000D94B2F10D94B2F10D94B2F10D94B2F140
:10E0D0000D94B2F10D94B2F10D94B2F10D94B2F130
:10E0E0000D94B2F141546D656761323536300041AF
:10E0F000726475696E6F206578706C6F72657220DE
:10E1000073746B3530305632206279204D4C530099
:10E11000426F6F746C6F616465723E004875683F52
:10E1200000436F6D70696C6564206F6E203D200048
:10E130004350552054797065202020203D20005FF9
:10E140005F4156525F415243485F5F3D2000415658
:10E1500052204C696243205665723D20004743437C
:10E160002056657273696F6E203D20004350552024
:10E1700049442020202020203D20004C6F7720663D
:10E18000757365202020203D20004869676820665F
:10E190007573652020203D200045787420667573D6
:10E1A00065202020203D20004C6F636B2066757336
:10E1B000652020203D20004D617220203720323024
:10E1C000313300312E362E3800342E332E350056A2
:10E1D00023202020414444522020206F7020636F70
:10E1E00064652020202020696E73747275637469E1
:10E1F0006F6E2061646472202020496E74657272B3
:10E20000757074006E6F20766563746F7200726A49
:10E210006D702020006A6D70200057686174207056
:10E220006F72743A00506F7274206E6F7420737541
:10E2300070706F72746564004D7573742062652030
:10E2400061206C6574746572002000577269747483
:10E25000696E672045450052656164696E672045B7
:10E26000450045452065727220636E743D00504F35
:10E27000525400303D5A65726F2061646472003FF1
:10E280003D43505520737461747300403D454550C3
:10E29000524F4D207465737400423D426C696E6B41
:10E2A000204C454400453D44756D70204545505215
:10E2B0004F4D00463D44756D7020464C415348001B
:10E2C000483D48656C70004C3D4C69737420492F83
:10E2D0004F20506F72747300513D51756974005234
:10E2E0003D44756D702052414D00563D73686F7707
:10E2F00020696E7465727275707420566563746FF0
:10E30000727300593D506F727420626C696E6B00BD
:10E310002A0011241FBECFEFD1E2DEBFCDBF01E046
:10E320000CBF12E0A0E0B2E0EEE1FDEF03E00BBFB6
:10E3300002C007900D92A030B107D9F712E0A0E01B
:10E34000B2E001C01D92AE30B107E1F70F9460F367
:10E350000D948DFE01E20EBF0FEF0DBF11241FBE05
:10E360000D9460F30D9400F020E030E040ED57E0B4
:10E3700005C0FA013197F1F72F5F3F4F2817390792
:10E38000C0F308959C01260F311DC901A0E0B0E043
:10E390002F5F3F4FABBFFC018791882361F08093D3
:10E3A000C6008091C00086FFFCCF8091C0008064D1
:10E3B0008093C000EACF08958DE08093C6008091DD
:10E3C000C00086FFFCCF8091C00080648093C000B5
:10E3D0008AE08093C6008091C00086FFFCCF8091C8
:10E3E000C00080648093C00008950F94C2F10F9420
:10E3F000DCF10895FC019081992359F09093C600B7
:10E400008091C00086FFFCCF8091C0008064809323
:10E41000C0003196992379F70895282F982F929567
:10E420009F70892F805D8A3308F0895F8093C600D2
:10E430008091C00086FFFCCF8091C00080648093F3
:10E44000C000822F8F70982F905D9A3308F0995FEB
:10E450009093C6008091C00086FFFCCF8091C000E1
:10E4600080648093C00008959C01FB01853691056E
:10E470001CF46330710594F0C90164E670E00F94F8
:10E480002EFE605D7F4F6093C6008091C00086FFC6
:10E49000FCCF8091C00080648093C0002B30310598
:10E4A00014F43297B4F0C90164E670E00F942EFEC4
:10E4B0006AE070E00F942EFE605D7F4F6093C600AF
:10E4C0008091C00086FFFCCF8091C0008064809363
:10E4D000C000C9016AE070E00F942EFEC0968093E0
:10E4E000C6008091C00086FFFCCF8091C000806490
:10E4F0008093C00008951F93182F8EE692EE60E07F
:10E500000F94C2F11093C6008091C00086FFFCCF2B
:10E510008091C00080648093C0000F94DCF11F9153
:10E5200008952F923F924F925F926F927F928F92B7
:10E530009F92AF92BF92CF92DF92EF92FF920F9392
:10E540001F93DF93CF93CDB7DEB762970FB6F894E2
:10E55000DEBF0FBECDBF382E622ECA01DB015C01CB
:10E560006D01772420E2222E2E010894411C511CBB
:10E570008BC081E0A81680E0B80681E0C80680E084
:10E58000D80628F0C601AA27BB270F940DF2BB2797
:10E59000AD2D9C2D8B2D0F940DF28A2D0F940DF225
:10E5A0002092C6008091C00086FFFCCF8091C00001
:10E5B00080648093C0009DE29093C6008091C0006B
:10E5C00086FFFCCF8091C00080648093C0002092C1
:10E5D000C6008091C00086FFFCCF8091C00080649F
:10E5E0008093C00019828601750188249924A1E0D6
:10E5F0003A1651F03A1620F0B2E03B1661F409C029
:10E600000BBFF701779007C0C7010F9477FE782EF4
:10E6100002C0F7017080872D0F940DF22092C60082
:10E620008091C00086FFFCCF8091C0008064809301
:10E63000C000872D8052F401EF70F0708F3520F408
:10E64000E40DF51D708204C0E40DF51D8EE280839B
:10E650000894E11CF11C011D111D0894811C911CE2
:10E6600090E18916910409F0C2CF80E190E0A0E02A
:10E67000B0E0A80EB91ECA1EDB1E198AC2010F9493
:10E68000FAF10F94DCF16A94662009F072CF629679
:10E690000FB6F894DEBF0FBECDBFCF91DF911F91B3
:10E6A0000F91FF90EF90DF90CF90BF90AF909F9031
:10E6B0008F907F906F905F904F903F902F90089534
:10E6C0002F923F924F925F926F927F928F929F9282
:10E6D000AF92BF92CF92DF92EF92FF920F931F9370
:10E6E000DF93CF93CDB7DEB7CD53D1400FB6F894BB
:10E6F000DEBF0FBECDBF01E20EBF0FEF0DBF94B75F
:10E70000F894A89514BE80916000886180936000A1
:10E7100010926000789493FF05C0E0910002F091A0
:10E7200001021995279A2F9A8091C00082608093E8
:10E73000C00080E18093C40088E18093C1000000A4
:10E74000EE24FF24870144E0A42EB12CCC24DD2448
:10E7500024C0C5010197F1F70894E11CF11C011DCB
:10E76000111D21E2E2162EE4F20620E0020720E06D
:10E77000120718F031E0C32ED12CC801B70127ECE5
:10E780003BE140E050E00F9441FE611571058105C9
:10E79000910519F485B1805885B98091C00087FD35
:10E7A00003C0C114D104A9F2A6014F5F5F4FC25E3E
:10E7B000DE4F59834883CE51D140C25EDE4F8881FF
:10E7C0009981CE51D140019711F00D9410FEC05D9A
:10E7D000DE4F19821882C053D14060E0C15DDE4F28
:10E7E0001882CF52D14088249924C35DDE4F19820C
:10E7F0001882CD52D140C05EDE4F188219821A8233
:10E800001B82C052D140CE5CDE4F188219821A8220
:10E810001B82C253D140EE24FF2487010BBFF701B6
:10E8200007911691C45CDE4F19830883CC53D14005
:10E830000D940BFEC25EDE4F28813981CE51D1404E
:10E840002130310509F52091C600C25EDE4F1982E4
:10E850001882CE51D14022C02F5F3F4F4F4F5F4FA4
:10E86000213082E138078AE7480780E0580780F0C6
:10E87000C45CDE4FE881F981CC53D140EF5FFF4F9C
:10E8800019F0EE27FF27099420E030E040E050E047
:10E890008091C00087FFE0CF2091C600C35DDE4FAE
:10E8A00048815981CD52D1404F5F5F4FC35DDE4FEC
:10E8B00059834883CD52D140213209F063C64A3092
:10E8C000510508F05FC60894811C911C53E0851621
:10E8D000910409F059C600E010E018C081E280936D
:10E8E000C6008091C00086FFFCCF8091C00080648C
:10E8F0008093C0002F5F3F4F2931310579F70F9486
:10E90000DCF10F5F1F4F0530110519F020E030E0FA
:10E91000E5CF10920A0210920B0210920C02109294
:10E920000D02109206021092070210920802109235
:10E930000902109202021092030210920402109235
:10E9400005028FEE90EE60E00F94F5F180E191EE1C
:10E9500060E00F94C2F18091C00087FFFCCF9091DE
:10E96000C600903608F09F759032B8F09093C600BC
:10E970008091C00086FFFCCF8091C00080648093AE
:10E98000C000A0E2A093C6008091C00086FFFCCF2B
:10E990008091C00080648093C000983409F4D7C18E
:10E9A0009934B8F4923409F459C1933458F490333B
:10E9B00019F1903308F4E3C59F33A1F1903409F0C5
:10E9C000DEC5BDC0953409F470C1963409F0D7C5D1
:10E9D00098C1923509F42BC2933538F49C3409F46C
:10E9E000F5C1913509F0CBC518C2963509F445C279
:10E9F000993509F0C4C567C483E792EE62E00F94CD
:10EA0000F5F110920602109207021092080210927D
:10EA1000090210920A0210920B0210920C0210923C
:10EA20000D0213C18FE792EE62E00F94F5F18FEEC5
:10EA300090EE60E00F94F5F181E291EE60E00F94CA
:10EA4000C2F187EB91EE60E00F94F5F180E391EE77
:10EA500060E00F94C2F184EE90EE60E00F94F5F167
:10EA60008FE391EE60E00F94C2F186E090E061E008
:10EA700070E00F9434F20F94DCF18DE591EE60E0DC
:10EA80000F94C2F189EC91EE60E00F94F5F18EE401
:10EA900091EE60E00F94C2F183EC91EE60E00F9490
:10EAA000F5F18CE691EE60E00F94C2F18EE10F94E7
:10EAB0000DF288E90F940DF281E00F940DF20F949E
:10EAC000DCF18BE791EE60E00F94C2F119E0E0E039
:10EAD000F0E010935700E4918E2F0F940DF20F94F5
:10EAE000DCF18AE891EE60E00F94C2F1E3E0F0E03F
:10EAF00010935700E4918E2F0F940DF20F94DCF1D8
:10EB000089E991EE60E00F94C2F1E2E0F0E0109349
:10EB10005700E4918E2F0F940DF20F94DCF188EAE8
:10EB200091EE60E00F94C2F1E1E0F0E01093570045
:10EB30001491812F0F940DF20F94DCF107CF8BE825
:10EB400092EE62E00F94F5F18BE492EE60E00F94A8
:10EB5000F5F10F94DCF100E010E019C0C8016F2D51
:10EB60000F947FFEFF2031F489E492EE60E00F9471
:10EB7000C2F10BC0F092C6008091C00086FFFCCFAE
:10EB80008091C00080648093C0000F5F1F4FC80158
:10EB900081519F41A0E0B0E0ABBFFC01F790BAE229
:10EBA000FB1621F0E2E000301E07C1F60F94DCF105
:10EBB0000F94DCF187E592EE60E00F94F5F10F948D
:10EBC000DCF1CC24DD2400E010E01EC0C8010F946D
:10EBD00077FEF82E882331F489E492EE60E00F94FA
:10EBE000C2F10BC08093C6008091C00086FFFCCFAD
:10EBF0008091C00080648093C000FE1419F00894D6
:10EC0000C11CD11C0F5F1F4FC80181519F41A0E063
:10EC1000B0E0ABBFFC01E790FAE2EF1621F022E092
:10EC20000030120799F60F94DCF10F94DCF182E6C4
:10EC300092EE60E00F94C2F1C60161E070E00F94C3
:10EC400034F20F94DCF10F94DCF110920202109276
:10EC50000302109204021092050278CE89E992EE26
:10EC600062E00F94F5F1279A2F9A16C02F9880E052
:10EC700090E0E0EDF7E03197F1F7019684369105E9
:10EC8000C1F72F9A80E090E0E0EDF7E03197F1F7DF
:10EC9000019684369105C1F78091C00087FFE6CFC9
:10ECA0008091C00087FFFCCF64C485EA92EE62E0E9
:10ECB0000F94F5F140910202509103026091040219
:10ECC0007091050281E020E10F9491F2809102029F
:10ECD00090910302A0910402B091050280509F4FD1
:10ECE000AF4FBF4F8093020290930302A0930402A0
:10ECF000B093050280509041A040B04008F426CE69
:10ED0000A4CF83EB92EE62E00F94F5F140910602FE
:10ED100050910702609108027091090280E020E1A1
:10ED20000F9491F28091060290910702A09108023F
:10ED3000B091090280509F4FAF4FBF4F80930602A2
:10ED400090930702A0930802B0930902FFCD80ECD4
:10ED500092EE62E00F94F5F183E792EE60E00F949B
:10ED6000F5F18FE792EE60E00F94F5F18BE892EE0B
:10ED700060E00F94F5F189E992EE60E00F94F5F10F
:10ED800085EA92EE60E00F94F5F183EB92EE60E09D
:10ED90000F94F5F180EC92EE60E00F94F5F187ECC2
:10EDA00092EE60E00F94F5F188ED92EE60E00F9442
:10EDB000F5F18FED92EE60E00F94F5F18AEE92EEB0
:10EDC00060E00F94F5F183E093EEBDCD87EC92EE19
:10EDD00062E00F94F5F181E40F947BF282E40F94EA
:10EDE0007BF283E40F947BF284E40F947BF285E45E
:10EDF0000F947BF286E40F947BF287E40F947BF20E
:10EE000088E40F947BF28AE40F947BF28BE40F94F6
:10EE10007BF28CE40F947BF299CD88ED92EE62E068
:10EE20000F94F5F1772473948824992409C48FED05
:10EE300092EE62E00F94F5F140910A0250910B02BC
:10EE400060910C0270910D0282E020E10F9491F22A
:10EE500080910A0290910B02A0910C02B0910D02D8
:10EE600080509F4FAF4FBF4F80930A0290930B0289
:10EE7000A0930C02B0930D0269CD8AEE92EE62E08F
:10EE80000F94F5F184EE90EE60E00F94F5F18FECC5
:10EE900091EE60E00F94F5F1662477244301CC5D98
:10EEA000DE4F19821882C452D140D401C301B695F5
:10EEB000A79597958795CA5DDE4F88839983AA8326
:10EEC000BB83C652D140CC5DDE4FA881B981C4520C
:10EED000D1401196CC5DDE4FB983A883C452D14096
:10EEE000CD0162E070E00F9434F2B0E2B093C6005E
:10EEF0008091C00086FFFCCF8091C0008064809329
:10EF0000C000EDE2E093C6008091C00086FFFCCF18
:10EF10008091C00080648093C000F0E2F093C6004E
:10EF20008091C00086FFFCCF8091C00080648093F8
:10EF3000C000CA5DDE4FE880F9800A811B81C6529D
:10EF4000D140BB27A12F902F8F2D0F940DF2CA5DBA
:10EF5000DE4F8881C652D1400F940DF2B0E2FB2EF5
:10EF6000F092C6008091C00086FFFCCF8091C00067
:10EF700080648093C0000DE30093C6008091C000C0
:10EF800086FFFCCF8091C00080648093C00010E2B7
:10EF90001093C6008091C00086FFFCCF8091C00016
:10EFA00080648093C0008BBEF3012791C65DDE4F65
:10EFB0002883CA52D140A22EBB24CC24DD2408943D
:10EFC000611C711C811C911C8BBEF3018791282E42
:10EFD0003324442455240894611C711C811C911C09
:10EFE0008BBEF3013791C55DDE4F3883CB52D140E4
:10EFF0000894611C711C811C911C8BBEF30147910C
:10F00000C45DDE4F4883CC52D140ADEFEA2EAFEF66
:10F01000FA2EAFEF0A2FAFEF1A2F6E0C7F1C801E57
:10F02000911E142D032DF22CEE24EA0CFB1C0C1D5A
:10F030001D1D0F940DF220E22093C6008091C000A8
:10F0400086FFFCCF8091C00080648093C000C65DC5
:10F05000DE4F8881CA52D1400F940DF230E23093D6
:10F06000C6008091C00086FFFCCF8091C000806404
:10F070008093C000C45DDE4F8881CC52D1400F9494
:10F080000DF240E24093C6008091C00086FFFCCFA5
:10F090008091C00080648093C000C55DDE4F888190
:10F0A000CB52D1400F940DF250E25093C6008091A4
:10F0B000C00086FFFCCF8091C00080648093C000B8
:10F0C0008FEFE8168FEFF80680E0080780E018075A
:10F0D00031F484E092EE60E00F94C2F1DFC0D80119
:10F0E000C7018070907CA070B0708050904CA040A0
:10F0F000B040D1F52FEF3FE340E050E0E222F322B1
:10F1000004231523CA5DDE4FA880B980CA80DB8046
:10F11000C652D140AE0CBF1CC01ED11EAA0CBB1CD7
:10F12000CC1CDD1C8EE092EE60E00F94C2F1BB2798
:10F13000A12F902F8F2D0F940DF28E2D0F940DF285
:10F1400030E23093C6008091C00086FFFCCF8091F2
:10F15000C00080648093C0004EE34093C60080915D
:10F16000C00086FFFCCF87C08EE09EEFA0E0B0E03D
:10F17000E822F9220A231B239CE0E91694E9F90608
:10F1800090E0090790E0190709F088C0C45DDE4FE0
:10F19000A881CC52D140EA2EFF2400E010E0102FCD
:10F1A0000F2DFE2CEE24C55DDE4FB881CB52D14031
:10F1B000EB0EF11C011D111DD601C501817090706F
:10F1C000A070B070DC0199278827E80EF91E0A1F8D
:10F1D0001B1F20EF30E040E050E0A222B322C42207
:10F1E000D52241E1AA0CBB1CCC1CDD1C4A95D1F7F1
:10F1F000EA0CFB1C0C1D1D1D81E090E0A0E0B0E0BE
:10F20000282239224A225B2235E1220C331C441C7D
:10F21000551C3A95D1F7E20CF31C041D151D57013E
:10F220006801AA0CBB1CCC1CDD1C85E192EE60E0E1
:10F230000F94C2F1C801AA27BB270F940DF2BB2778
:10F24000A12F902F8F2D0F940DF28E2D0F940DF274
:10F2500090E29093C6008091C00086FFFCCF809121
:10F26000C00080648093C000AEE3A093C60080918C
:10F27000C00086FFFCCF8091C00080648093C000F6
:10F28000C601AA27BB270F940DF2BB27AD2D9C2DDD
:10F290008B2D0F940DF28A2D0F940DF20F94DCF14B
:10F2A000CC5DDE4FE881F981C452D140F99709F471
:10F2B0004DCBF4E0EF2EF12C012D112D6E0C7F1CA7
:10F2C000801E911EF2CD83E093EE62E00F94F5F183
:10F2D0008AE192EE60E00F94C2F18091C00087FF56
:10F2E000FCCF1091C6001F751093C6008091C0001E
:10F2F00086FFFCCF8091C00080648093C0000F9493
:10F30000DCF1812F81548A3108F036C1163409F4BA
:10F3100095C0173490F4133409F44EC0143430F40B
:10F320001134F1F0123409F01DC130C0143409F465
:10F3300059C0153409F016C16BC01A3409F4C4C0A1
:10F340001B3438F4173409F48FC0183409F00AC19B
:10F35000A1C01B3409F4D2C01C3409F003C1E8C0B9
:10F360008FEF81B90DC082B1809582B980E090E0C5
:10F37000E0EDF7E03197F1F70196883C9105C1F790
:10F380008091C00087FFEFCF12B8EFC08FEF84B934
:10F390000DC085B1809585B980E090E0E0EDF7E0A3
:10F3A0003197F1F70196883C9105C1F78091C00033
:10F3B00087FFEFCF15B8D9C08FEF87B90DC088B1DF
:10F3C000809588B980E090E0E0EDF7E03197F1F7C3
:10F3D0000196883C9105C1F78091C00087FFEFCF6F
:10F3E00018B8C3C08FEF8AB90DC08BB180958BB9A7
:10F3F00080E090E0E0EDF7E03197F1F70196883C8E
:10F400009105C1F78091C00087FFEFCF1BB8ADC059
:10F410008FEF8DB90DC08EB180958EB980E090E0F0
:10F42000E0EDF7E03197F1F70196883C9105C1F7DF
:10F430008091C00087FFEFCF1EB897C08FEF80BBD1
:10F440000DC081B3809581BB80E090E0E0EDF7E0F6
:10F450003197F1F70196883C9105C1F78091C00082
:10F4600087FFEFCF11BA81C08FEF83BB0DC084B38C
:10F47000809584BB80E090E0E0EDF7E03197F1F714
:10F480000196883C9105C1F78091C00087FFEFCFBE
:10F4900014BA6BC08FEF809301010FC080910201FD
:10F4A00080958093020180E090E0E0EDF7E03197F5
:10F4B000F1F70196883C9105C1F78091C00087FF64
:10F4C000EDCF1092020151C08FEF809304010FC065
:10F4D0008091050180958093050180E090E0E0ED4A
:10F4E000F7E03197F1F70196883C9105C1F78091DB
:10F4F000C00087FFEDCF1092050137C08FEF8093DA
:10F5000007010FC08091080180958093080180E079
:10F5100090E0E0EDF7E03197F1F70196883C910536
:10F52000C1F78091C00087FFEDCF109208011DC088
:10F530008FEF80930A010FC080910B01809580931B
:10F540000B0180E090E0E0EDF7E03197F1F70196F4
:10F55000883C9105C1F78091C00087FFEDCF1092E4
:10F560000B0103C085E292EEEEC98091C00087FFD7
:10F57000FCCF8091C600EAC988E392EEE4C98CE131
:10F5800091EEE1C988249924933011F1943028F444
:10F59000913089F09230B8F408C0953061F195301F
:10F5A000F0F0963009F048C043C02B3109F042C951
:10F5B00091E06BE13FC96227C15DDE4F2883CF52E6
:10F5C000D14092E037C9B22FA0E0622793E032C960
:10F5D000822F90E0A82BB92B622794E02BC92E3004
:10F5E00009F039C3622795E0C05DDE4F19821882A9
:10F5F000C053D1401FC9E1E0F0E0EC0FFD1FC05D3A
:10F60000DE4F08811981C053D140E00FF11F2083E4
:10F610000F5F1F4FC05DDE4F19830883C053D14079
:10F6200062270A171B0709F005C9D80196E002C92D
:10F63000261709F010C303C0973009F0FBC87724E0
:10F640009981933109F412C19431C8F4963009F4C8
:10F65000D8C0973050F4923009F406C1933009F4C1
:10F660006DC0913009F059C253C0913109F477C08F
:10F67000923108F0BBC0903109F04FC2F5C098310B
:10F6800009F487C0993150F4953109F4EFC09531F0
:10F6900008F4C6C1963109F040C2C2C19A3109F4DA
:10F6A0006CC09A3108F491C09B3109F45BC09D3164
:10F6B00009F033C29D81903359F48F81882311F46E
:10F6C0009EE11CC0813011F091E018C098E916C08D
:10F6D000892F807591F0903539F4E0E0F0E089E011
:10F6E0008093570094910AC0983539F4E3E0F0E034
:10F6F00089E080935700949101C090E01A821B82A8
:10F700008D818C831D829E831F8227E030E009C299
:10F710001A8288E08B8381E48C8386E58D8382E581
:10F720008E8389E48F8383E5888780E589878FE5E9
:10F730008A8782E38B872BE030E0F3C18A818139AD
:10F7400041F0823941F0803911F48FE005C080E04A
:10F7500003C082E001C08AE01A828B8344C0772410
:10F76000739482C08D81882311F48EE12CC0813086
:10F7700011F081E028C088E926C01A82E1E0F0E0BB
:10F7800089E08093570084918B831C8224E030E0D1
:10F79000C8C18B81803589F48C81883039F4E2E0EE
:10F7A000F0E089E08093570084910DC0E0E0F0E044
:10F7B00089E080935700849106C0E3E0F0E089E09F
:10F7C0008093570084911A82DFCF8D81836C99E0FA
:10F7D000E1E0F0E0082E90935700E89507B600FCB2
:10F7E000FDCF1A821B8223E030E09BC180EC8A832C
:10F7F000CE5CDE4F188219821A821B82C253D1401E
:10F800008EC18A8190E0A0E0B0E0582F44273327D2
:10F8100022278B8190E0A0E0B0E0DC0199278827C7
:10F82000282B392B4A2B5B2B8D8190E0A0E0B0E098
:10F83000282B392B4A2B5B2B8C8190E0A0E0B0E089
:10F84000BA2FA92F982F8827282B392B4A2B5B2BCF
:10F85000220F331F441F551FC05EDE4F288339839C
:10F860004A835B83C052D1401A8259C13A81C95C34
:10F87000DE4F3883C753D140CA5CDE4F1882C6536F
:10F88000D1408B81C82EDD24CA5CDE4F488159816E
:10F89000C653D140C42AD52A933109F082C0CE5C28
:10F8A000DE4F88819981AA81BB81C253D1408050AB
:10F8B000904CA340B04030F583E0CE5CDE4FE88052
:10F8C000F9800A811B81C253D140F70100935B008C
:10F8D00080935700E89507B600FCFDCFCE5CDE4F65
:10F8E000088119812A813B81C253D14000501F4FAA
:10F8F0002F4F3F4FCE5CDE4F088319832A833B8313
:10F90000C253D140C05EDE4F488159816A817B81FC
:10F91000C052D140DE011B9631E08C9111962C91A2
:10F9200011971296C75CDE4F2883C953D140C85C3B
:10F93000DE4F1882C853D14090E0C85CDE4FE881AA
:10F94000F981C853D1408E2B9F2B0C01FA01609393
:10F950005B0030935700E89511244E5F5F4F6F4F67
:10F960007F4F0EEFE02E0FEFF02ECE0CDF1CC114F8
:10F97000D10499F685E0C05EDE4F088119812A81A5
:10F980003B81C052D140F80120935B008093570027
:10F99000E89507B600FCFDCF81E180935700E8951C
:10F9A00035C0C05EDE4F88819981AA81BB81C0527B
:10F9B000D140B695A795979587957C018601ABE0D8
:10F9C000AA2EB12CAC0EBD1E0BC0D5016D915D01F0
:10F9D000C7010F947FFE0894E11CF11C01501040F8
:10F9E0000115110591F7A60160E070E0440F551F65
:10F9F000661F771FC05EDE4FE880F9800A811B8199
:10FA0000C052D1404E0D5F1D601F711F1A82C05E33
:10FA1000DE4F488359836A837B83C052D1407FC0C5
:10FA2000FA80C55CDE4FF882CB53D140C65CDE4F16
:10FA30001882CA53D1408B81C82EDD24C65CDE4FAC
:10FA400008811981CA53D140C02AD12A1A828981DA
:10FA5000BE016D5F7F4F843121F59601C05EDE4FA0
:10FA6000E880F9800A811B81C052D1400BBFF701A9
:10FA700087919691DB018C9311969C936E5F7F4FDB
:10FA8000D801C7010296A11DB11DC05EDE4F88835B
:10FA90009983AA83BB83C052D14022503040F1F6F3
:10FAA00036C0C05EDE4F288139814A815B81C052F9
:10FAB000D1400894C108D108760100E010E0089414
:10FAC000C11CD11C0894E11CF11C011D111DE20E8A
:10FAD000F31E041F151F21BDBB27A52F942F832FB5
:10FAE00082BD2F5F3F4F4F4F5F4FF89A80B5DB01CC
:10FAF0008D93BD012E153F054007510761F7C05E8C
:10FB0000DE4F288339834A835B83C052D1409601FC
:10FB10002D5F3F4FFB01108204C080EC8A8322E0FE
:10FB200030E08BE18093C6008091C00086FFFCCF5F
:10FB30008091C00080648093C000C15DDE4FF88179
:10FB4000CF52D140F093C6008091C00086FFFCCF19
:10FB50008091C00080648093C000432F3093C60022
:10FB60008091C00086FFFCCF8091C00080648093AC
:10FB7000C000922F2093C6008091C00086FFFCCF6A
:10FB80008091C00080648093C0008EE08093C600A6
:10FB90008091C00086FFFCCF8091C000806480937C
:10FBA000C00065E1C15DDE4FE880CF52D1406E25D7
:10FBB00069276427FE01319610C090819093C6009A
:10FBC0008091C00086FFFCCF31968091C000806498
:10FBD0008093C0006927215030402115310569F715
:10FBE0006093C6008091C00086FFFCCF8091C0006A
:10FBF00080648093C00085B1805885B9772081F4F6
:10FC0000C15DDE4F0881CF52D1400F5FC15DDE4F35
:10FC10000883CF52D14090E0A0E0B0E00D941AF4F8
:10FC200027982F9880E090E020ED37E0F901319798
:10FC3000F1F7019684369105C9F700008091C00064
:10FC40008D7F8093C00081E180935700E895EE2777
:10FC5000FF270994FFCF90E00D941AF497FB092E2B
:10FC600007260AD077FD04D02ED006D000201AF443
:10FC7000709561957F4F0895F6F7909581959F4F08
:10FC80000895A1E21A2EAA1BBB1BFD010DC0AA1FDD
:10FC9000BB1FEE1FFF1FA217B307E407F50720F0F5
:10FCA000A21BB30BE40BF50B661F771F881F991F70
:10FCB0001A9469F760957095809590959B01AC01B9
:10FCC000BD01CF010895AA1BBB1B51E107C0AA1FAC
:10FCD000BB1FA617B70710F0A61BB70B881F991FED
:10FCE0005A95A9F780959095BC01CD010895F99991
:10FCF000FECF92BD81BDF89A992780B50895262F31
:10FD0000F999FECF1FBA92BD81BD20BD0FB6F89400
:0EFD1000FA9AF99A0FBE01960895F894FFCF63
:00000001FF
